AE1NRPS6810014549224X2BT00001V2136583301507 YQRL01ACRE1HZ5E02016CANRP    0004400
AE1NRPS5330015023296X3EA00003V2136583301592 088P10ACRE1HZ5E04050CKNRP    0004500
AE1NRPS1005012044354  EA00001V2136583600405 Y067P2ACRE9BX2304361BNNRP83600000356
AE1NRPS6810014549224  BT00001V2136590021521 YQRL01ACRE1HZ5E04015BQNRP    0004400
AE1NRPS5330015023296X3EA00005V2136590021528 Y088P1ACRE1HZ5E04050CKNRP    0004500
AE1SMSS5331010047229  EA00002V2136790074375 YNEM01ACRP9BZV603059BQSMS    0000383
AE1NBES5965008408849GLEA00002V2136790430263 Y20376ACRE9BJE513065D3NBE    0000000
AE1NRPS5930013225236  EA00001V2136790434273 YNEE01ACRE9BJK506065BNNRP90650138547
AE1NRPS7510015144924  CA00002V2136790434447 YNRC01ACRE1HZ5F15064CJNRP    0002200
AE1NRPS7510015144924  CA00002V2136790434447 YNRC01ACRE1HZ5F06064CJNRP    0002200
AE1NRPS6665010107965  BX00001V2136790525024 YNNE01ACRE9BJK506053D8NRP    0010124
AE1NRPS7025016033069  EA00001V2136790571663 Y33211ACBE7HJE506060CYNRP    0513800
AE1GSAS7510008784470  BX00001V2136790654402 YNRC01ACCE  JK506065C8         00003
